:030000000216FAEB
:0C16FA00787FE4F6D8FD75813A021741B4
:03002300021A506E
:03004300021500A3
:0300530002150093
:1015000002226B0002212B0002226B0002226B00E0
:1015100002226B0002226B0002226B0002226B008F
:1015200002226B0002226B0002226B0002226B007F
:1015300002226B0002226B0002226B0002226B006F
:1015400002226B0002226B0002226B0002226B005F
:1015500002226B0002226B0002226B0002226B004F
:1015600002226B0002226B0002226B0002226B003F
:1015700002226B0002226B0002226B0002226B002F
:1015800002226B0002226B0002226B0002226B001F
:1015900002226B0002226B0002226B0002226B000F
:1015A00002226B0002226B0002226B0002226B00FF
:0815B00002226B0002226B0015
:102067007400F58690FB4A7C05A3E582458370F9E9
:10207700227400F58690FFF37C05A3E58245837003
:02208700F9223C
:0B128600483363EBAA55030301170077
:102149007E007F407D007B01020E89E493FF7401CC
:0B21590093227D017E007F04020C7FBA
:1021B900903227E0FFD394FA40027FFAEF70027F52
:0221C9000122F1
:0D0046007F80903227E07004EF4440FF22DD
:10045A00903343120E2000000000C20090E680E0B4
:10046A004408F07FF47E011220897E007F1A7D0005
:10047A007B007A007921120E89121B7412000F90E8
:10048A003372E030E2097DFF7F027E01122193126E
:10049A0020EDC2AF121665903348E4F0A3740FF052
:1004AA001207EA70467A33794A7404120807703BD5
:1004BA0090334AE0641F7027A3E064EE7021A3E042
:1004CA0064FE701BA3E064ED70151207EA701C7AD3
:1004DA003179C374801208076011121665800C9076
:1004EA003372E030E0057D0212081C9031CBE0FF48
:1004FA00A3E090313FCFF0A3EFF09031CDE0FFA31E
:10050A00E0903141CFF0A3EFF09031CFE0FFA3E0CC
:10051A00903143CFF0A3EFF01221B9903115EFF0EB
:10052A001221B9903151EFF0903114E0FE120046D9
:10053A00EE4F903114F0903150E0FE120046EE4F2B
:10054A00903150F0900003122154903187CFF0A3DC
:10055A00EFF090000512215490318ECFF0A3EFF006
:10056A0090000712215490319ECFF0A3EFF0900033
:10057A00091221549031A5CFF0A3EFF090000B128D
:10058A0021549031B5CFF0A3EFF090000D12215411
:10059A009031BCCFF0A3EFF01215B890E680E0449A
:1005AA0002F0E054F7F043B1201221EE12223A7E13
:1005BA00007F047D007B017A33796B120E899033B8
:1005CA006B740FF0A37402F07A3279C31221497A5C
:1005DA003379031221491220AB121F3FD2AF90E6A2
:1005EA005DE030E00912142690E65D7401F090E6B1
:1005FA005DE030E6037440F090E65DE030E40674B6
:10060A0010F012226690E65DE030E3037408F09081
:10061A00E65FE030E0067401F012224790E65FE000
:10062A0030E1067402F0121E0090E65FE030E20349
:10063A007404F090E65FE020E30302073090E7805D
:10064A00E014602C248160030206FE90E781E02416
:10065A00FEFF12201C90310CEFF078087C317B01F0
:10066A007AE7798012215B9031097403F002071D41
:10067A009032C4E07003D38001C3400F903372E01C
:10068A0020E00302071D7D0302071690E68DE0D3E2
:10069A009440401A903372E030E0057D1212081C33
:1006AA00903372E030E06C90E68DE0FD805E90E77A
:1006BA0081E02402FFE433FE90E68DE06F7001EEE4
:1006CA00601A903372E030E0057D131208249033EB
:1006DA0072E030E03E90E68DE0FD803090E68DE0FD
:1006EA00FF7E0078C37C327D017B017AE779801234
:1006FA000C7F801F903372E030E0057D10120824D1
:10070A00903372E030E00C90E780E0FD7F007E01DC
:10071A0012219390E65F7408F000000000E490E66E
:10072A008DF000000000903105E0FF903104E06F89
:10073A0060173007147B017A337947121C7AEF600D
:10074A0008C207903347E0F599903082E0FF903075
:10075A0081E06F6003121FCA903109E06003122121
:10076A000C3006031214E79032C4E0600312082C1E
:10077A00903304E06003121D5230002090E6A2E09C
:10078A0020E11978C07CE77B017A33796B12215B0F
:10079A0090336CE0240290E68FF0C200903343124B
:1007AA000E08EF2401FFE43EFEE43DFDE43CFC902C
:1007BA003343120E14E47B107A27F9F8903343126C
:1007CA000E08120D65AC00AD01AE02AF03E4FBFAF0
:1007DA00F9F8C3120DF760030205E8D2000205E832
:1007EA007B017A33794890335B7402F0A37428F062
:1007FA00C2027FA212109D903347EFF0227B019034
:10080A00335BF0A37428F07FA212135E903347EF94
:10081A00F0227F007E01122193227F007E011221A5
:02082A00932217
:100026005269676953797374656D7300555342500D
:0D003600414C2028696E76616C69642900D8
:101665007E007F807D007B017A3179C3120E8990DF
:1016750031C77480F0A3E4F09031C3741FF0A374F4
:10168500EEF0A374FEF0A374EDF09031CB742AF064
:10169500A37415F07401A3F0A3F0A3E4F0A304F080
:1016A5007A0079261216EA7A007926903351120EBD
:1016B5005A7B017A3179DB1219827A007932121656
:1016C500EA7A007932903351120E5A7B017A3179D8
:1016D500FB1219829031DA7401F090321B120E2040
:1016E50001000000227BFF12217E903354EEF0A30F
:0516F500EFF07BFF2275
:1021DD003031323334353637383941424344454650
:0121ED0000F1
:05129100423371000072
:10000F0090E608E04402F075C040A2DFB3E433523B
:04001F00D8D2C12250
:0C20CD00EAFF121F9DAF03121F9D7F2031
:1020D900EFB40A0830C1FDC2C175C10D30C1FDC2DE
:0420E900C18FC122C0
:101F9D00AE07EEC4540FFD7C0024DDF582EC342138
:101FAD00F583E493FF1220D9EE540FFD7E0024DD5E
:0D1FBD00F582EE3421F583E493FF0220D974
:10219300AB07AA06A9051220CDAF011220D47F0AEE
:0321A3000220D93E
:1020420090336FEEF0A3EFF0AB05AA0490336FE08C
:10205200FF121F9D90336FA3E0FF1220D41220CDF8
:052062007F0A0220D9F5
:01226B003240
:10212B00C0E0C083C082758B6C758DFED28E5391CF
:0E213B00EF90E65D7402F0D082D083D0E032E7
:101A5000C0E0C0F0C083C082C0D075D000C000C05C
:101A600001C002C003C004C005C006C00730980D05
:101A7000903362E599F0C298E0FF121E3730991852
:101A8000C2997B017A337962121C7AEF6008903335
:101A900062E0F5998002D207D007D006D005D004C5
:101AA000D003D002D001D000D0D0D082D083D0F0EB
:031AB000D0E03251
:10208900903357EEF0A3EFF0903357E07002A3E0DE
:10209900600F12206790335774FFF5F0120CFD8022
:0220A900E7222C
:1020AB00E4F5C8D2CCD2CD75CAD075CBFFF598C2AA
:1020BB009FD29ED29CC299D207C298D2ACC2BCD23C
:0220CB00CA2227
:1021EE00C2ABC28EC28F53890F438910538EEF221A
:101B7400538EF8E490E605F090E600E054E7441252
:101B8400F075873075D840E490E608F0F5A8F5B80C
:101B9400F5E8F5A890E65CF090E65EF090E65AF081
:101BA40090E662F090E650F090E652F090E654F041
:101BB40090E656F090E660F075A1FF75A2FFF591EE
:0B1BC40090E6687408F00000000022AA
:0D223A0090E60174A3F0000000000211A462
:1020ED00E490E670F0F58075B28290E671F0F5A09F
:0F20FD00F5B490E6727402F075B16175B66122A8
:101FF6007E007F027D007B00020E8954801313133E
:10200600541FFF227E007F027D007B00020E899016
:06201600E6047480F022D4
:101DC8007E007F067D007B007A00792D120E897ACD
:101DD800007933121FF67533817A007935121FF6B0
:101DE8007535017A00793712200A7537827A0079B9
:081DF8003912200A7539062298
:1015B800903372E030E2097DFF7F017E04122193AF
:1015C800C2E8C2EAE490E65AF090E65B74FDF0E403
:1015D80090E658F090E659743FF0121DC890E61056
:1015E8007420F00000000090E611F0000000009068
:1015F800E6127462F00000000090E6137420F00018
:1016080000000090E6147422F00000000090E61537
:101618007460F00000000012201500000000740241
:10162800F0000000007406F000000000E4F0000084
:10163800000090E6187405F00000000090E61AF02B
:101648000000000090E65D747FF090E65F74FFF0A4
:0D16580090E65C7402F0D2F8D2E8D2EA22EB
:1011A40090E60B7403F00000000090E6107430F039
:1011B4000000000090E611F00000000090E68D743D
:1011C40040F00000000090E6A2E054FDF0000000B2
:1011D4000090E612745AF00000000090E614741AAD
:1011E400F000000000122015000000007402F0005E
:1011F4000000007406F000000000E4F000000000AD
:1012040090E6497486F000000000F00000000090B1
:10121400E6487482F000000000F00000000090E650
:10122400187405F00000000090E61A7411F0000034
:10123400000090E602740AF00000000090E60374D7
:101244000CF00000000090E6097403F000000000B8
:1012540090E6407401F00000000000000000E490FB
:10126400E650F00000000090E654F000000000900A
:10127400E65174FFF00000000090E655F000000015
:02128400002246
:05226600E4FF021F0C63
:101CC70090E68D7440F00000000090E6A2E054FD1D
:101CD700F000000000E535122001E535540F4F9064
:101CE700E683F000000000E04420F000000000E57B
:101CF70033122001E533540F4FF000000000E04499
:071D070020F00000000022A3
:101BCF0012201500000000E537540EF00000000051
:101BDF00E4F00000000090E6497486F00000000079
:101BEF00F000000000E537122001E537540F4F9049
:101BFF00E683F000000000E04420F000000000E564
:101C0F0039122001E539540F4FF000000000E04475
:071C1F0020F000000000228C
:101E6E008F23EF701443B12090E612E0547FF09070
:101E7E00E614E0547FF0021BCF121BCF90E612E067
:101E8E004480F090E614E04480F053B1DF7F017E91
:051E9E00001220892262
:101F0C0090334EEFF0F522121CC7E4FF121E6E1236
:101F1C001F3F90334EE090E610700CE0547FF09031
:101F2C00E611E0547FF022E04480F090E611E044AA
:031F3C0080F02210
:101296005231371201000202000040000000000037
:1012A60000010203016020310D0902200001010046
:1012B60000000904000002FF00000007058103404A
:1012C60000010705010340000160763149090276F5
:1012D600000201000000080B0002FF0000000904E4
:1012E600000002FF0000000705810340000107051A
:1012F60001034000010904010000FF000000090489
:10130600010102FF00000007058201040001070534
:1013160006010400010904010202FF00000007059E
:101326008201040001070506010400010904010306
:1013360002FF0000000705820104000107050601FF
:101346000400014A312D0A06000202000040010095
:071356004431BF0403090448
:0C000300000400040004000400040004D9
:10189600E5375480131313541FFFE537540F4F9049
:1018A600E683F02290334EE475F001120D1385F0B5
:1018B60082F58322E5395480131313541FFF227ACD
:1018C600327943752E01752F3275304322AE08AF3B
:1018D6000978437C327D017B012214F5828A83EFED
:1018E600F00DEDAE0422C3E5329FF532E5319EF5EB
:1018F600312290E6A0E04401F0E04480F022253059
:08190600F530EE352FF52F221C
:101ED80090334E7432F0A37445F08F828E83E060A5
:101EE8001D0FEF70010E14F582E0FD1218AAEDF037
:101EF8001218AAE4F0903243E02402F080DC903219
:041F080043E0FF2291
:1021A600EF540FFFD39409EF50052430FF8003242A
:0321B60037FF22CE
:1019EA0090334EEEF0A3EFF0A9057E327D457C32AE
:1019FA00E9604D90334E1218ADE0903350F019E083
:101A0A00C4540FFF1221A60DEDAA0470010C12187E
:101A1A00E070010C14F5828E83E4F0903350E0FFFD
:101A2A001221A60DEDAA0470010C1218E070010C27
:101A3A0014F5828E83E4F0903243E02404F080B0FF
:061A4A00903243E0FF2290
:101F6F009032437402F0A304F0EF24FE600D14606E
:101F7F0011240270167E317FDB80047E317FFB02DD
:0E1F8F001ED87E317FD37D080219EA7F002222
:10005600903372E030E409AD267F027E05122193CB
:10006600E526120E63008A000122010217030459D5
:100076000502E50603BB0803D30904260A03EE0BB3
:1000860000000456E52C6402452B600302045675F5
:100096003100753202E4903243F0A3F0E525541F97
:1000A60014606814601D24027069903150E0C41316
:1000B600135401903243F0E5247003020459E044DE
:1000C60002F022E52A14601824FB602E2484601DA9
:1000D600047040E534B404047F0180297F00802544
:1000E600E536B404047F0180027F008018E538B449
:1000F60004047F0180027F00800BE53AB404047F8C
:100106000180027F00903243EFF022E4903243F008
:10011600A3F022752D04E4F531F53222E52C452BAA
:100126006003020456E525541F24FE601424026071
:1001360003020214E52864016003020456E4F52470
:1001460022E5286003020456E52A14602124FB6098
:100156006C2484602E04600302021190E6A2E0542F
:10016600FDF000000000E054FEF0E4F5342290E6D5
:100176008D7440F00000000090E6A1E054FEF0E42B
:10018600F5362290E6047480F000000000E537544E
:100196000EF000000000E4F00000000012189600C7
:1001A600000000E04420F00000000090E6A3E054C8
:1001B600FEF090E612E04480F0E4F5382290E60482
:1001C6007480F000000000E539540EF000000000D5
:1001D600E4F00000000090E6497486F0000000009C
:1001E600F0000000001218BAE5391218A20000004B
:1001F60000E04420F00000000090E6A5E054FEF088
:1002060090E614E04480F0E4F53A22020456020433
:1002160056E52C452B6003020456E525541F24FEA3
:100226006014240260030202E2E52824FE70030241
:10023600045904020456E5286003020456E52A140C
:10024600602F24FB606D248460480460030202DF93
:1002560090E6A2E04401F0E5331218BCE53312182B
:10026600A200000000E04420F00000000075340405
:100276002290E6A1E04401F0E5351218BCE53512FE
:1002860018A200000000E04420F0000000007536CF
:10029600042290E6A3E04401F090E612E0547FF0D9
:1002A60012189600000000E04420F00000000075DF
:1002B60038042290E614E0547FF090E6A5E044016D
:1002C600F01218BAE5391218A200000000E0442026
:1002D600F000000000753A0422020456020456E5B6
:1002E6002724FE601C14604524FD606E14607C2487
:1002F60006600302039F752E01752F317530378016
:1003060023E5287053E5216012752E01752F31758E
:1003160030497508007509760203A2752E01752FFE
:100326003175300D7508007509200203A2E5281401
:1003360024FD501524047020752E01752F3175305B
:10034600BF75080075090480531218C5AF28121F1F
:100356006F7508008F098044803F752E01752F3117
:1003660075302D75080075090A8031E521600F7515
:1003760008007509201218D37A31790D800D750899
:10038600007509761218D37A317949120C7F9032AA
:10039600447407F01218C98003752D04C3E52C9523
:1003A60009E52B95085007852B31852C32228508C7
:1003B6003185093222E52C6401452B7006E525645A
:1003C600806003020456903243E5228079E52C458D
:1003D6002B7004E52560028077E52814600304701D
:1003E60005AF28021F0C8068E52C452B7006E52515
:1003F60064016002805AE52270028054E52A146086
:100406000C04701AE52860028046021CC7E528D352
:1004160094034002803A852823AF28021E6E80305E
:10042600E52C6401452B7006E52564816002802079
:10043600E52A14600C047016E4903243F0F531801E
:1004460009903243E523F0753100753201228000B0
:04045600752D0422DA
:101B1500E5BA20E05990334E7440F0E0FFD3E5324A
:101B25009FE53194005006E532F0E4F52D90334EF3
:101B3500E0FFD39400401E7E0078407CE77D01AB3A
:101B45002EAA2FA930120C7F90334EE0FF7E001293
:101B550019041218EC00000000E490E68AF0000079
:0F1B6500000090334EE090E68BF000000000226D
:1014260090E6B8E0F525A3E0F526A3E0F528A3E0CD
:10143600F527A3E0F52AA3E0F52990E6BFE0FC90A6
:10144600E6BEE0FFECF52BEFF52C903372E030E4CE
:1014560009AD257F017E0512219390E680E030E7F5
:10146600057521018003E4F521E4F52DF531F5320A
:101476001218C5D3E52C9400E52B94004013E525FE
:1014860030E705752D028009852B31852C32752DA7
:1014960003E525546024C060092440700A120056F2
:1014A6008008120ED78003752D04E52D24FD600CEF
:1014B60014601924027018121B1580130000000016
:1014C60090E68B7480F00000000080031218F8E5A7
:1014D6002D64026004E52D700790E6A0E04480F0DC
:0114E60022E3
:0A224700E52D24FE7003121B152282
:10190E000000000090E68BE090334EF000000000E7
:10191E00E0FFC394405003752D01EFD39400404671
:10192E00E5329FE53194005010752D04E4F531F544
:10193E003290334EE532F0802D90334EE0FF7E0034
:10194E00A830AC2FAD2E7B017AE77940120C7F9038
:10195E00334EE0FF7E001218ECEF121904E532450B
:10196E00317003752D0100000000E490E68BF0004D
:04197E000000002243
:101E0000E52D24FD701512190EE52DB40110E52500
:101E1000546024C07005120ED78003752D04E52D83
:101E200024FC600F2403700E90E6A0E04480F0E4F0
:071E3000F52D221218F82223
:08225100752D04903372E022A8
:100ED700903372E030E405AD25121095903372E03F
:100EE70030E405AD26121095E525541F6002805B9E
:100EF700E52520E703020FD5E52624FE60451460AB
:100F07002724F3606D240F6003020FC9E52C6408E2
:100F1700452B60028035752E01752F33753063754B
:100F27003100753208020FB9E52C6480452B600249
:100F37008019752E01752F317530C37531007532E3
:100F470080806FE52C6401452B6004752D0422E534
:100F5700B130E207E4903243F080069032437401E7
:100F6700F0752E01752F32753043753100753201DA
:100F770080407B007A00792990335B7402F0A37478
:100F870028F0C2027FA212109D90334EEFF0702618
:100F9700AB2EAA2FA93090335BE52CF0A37428F071
:100FA7007FA212135E90334EEFF0700A852B3185C6
:100FB7002C32752D022212225120E00302107902F1
:100FC700104212225120E003021079021070E52628
:100FD70024FC604B24F3600302106AE52DB403146C
:100FE700903243E529F0A3E52AF0752E01752F32DB
:100FF700753045227B017A327943E52C2402903300
:101007005BF0A37428F0D2027FA212109D90334E9A
:10101700EFF0E0FD605C12225130E0560210727E64
:10102700007F087D007B017A33794F120E891210F9
:101037007AEFF0600D12225130E03790334EE0FD29
:1010470080297F147E00122089903350740FF0128C
:10105700107AEFF0601C12225130E01690334EE008
:10106700FD800812225130E009AD267F017E06126D
:101077002193227B017A33794F90335B7408F0A375
:101087007428F0D2027FA212109D90334E227F0166
:061097007E0612219322E7
:101C260090334FE0FEA3E0FF2404F582E43EF58303
:101C3600E02290334FE0FCA3E0FD2407F582E43C6C
:101C4600F583E0227E327FC390334FEEF0A3EFF0B0
:101C56002290334FE0FEA3E022EB2405F582E43A1E
:101C6600F58322FD5407FC7401A80408229033046E
:041C7600E024022242
:1021CB009033057480F0903307EFF090330474066E
:0221DB00F022F0
:0F220E00EFD39407500122EFB41702D322C3225B
:101D5200903372E030E40C903304E0FD7F017E0AA0
:101D620012219390E6A2E020E122121C73FFE433D9
:101D7200FE78C07CE77D017B017A337903120C7F08
:0D1D8200121C7390E68FF0E4903304F02201
:10082C00E490334EF0903372E030E40C9032C5E03B
:10083C00FD7F027E0A12219378037C337D017B01BC
:10084C007A3279C37E007F04120C7F9033047402D9
:10085C00F09032C5E024FE7003020A4024F17003CC
:10086C0002099D24F17003020A61147003020B2724
:10087C00147003020ACA24106003020BA4121C4A4F
:10088C002406121C30FF12220E400F121C57240695
:10089C00121C3064106003020A6D121C57FF2406F0
:1008AC00121C305407FD7401A805088002C333D80C
:1008BC00FC903351F0EF121C2EFF903352E4F0A356
:1008CC00EFF0E0F8E4F0E8903352F0121C57FF24FC
:1008DC0005121C30FD903352E0F0A3E04DF08F82F6
:1008EC008E83A3E024F8903354F090334FA3E0FFB1
:1008FC002408121C307004D2878002C287EF2406B1
:10090C00121C3054F0FF701890334FE0FCA3E0122F
:10091C001C409033517006E0F452A08003E042A0DA
:10092C00EF64107016121C572407121C30903351B0
:10093C007006E0F452B18003E042B17E327FCD7C90
:10094C00337D07903352E0FAA3E0FB12180E121C11
:10095C0057FF2406121C3054F0FD7014EF240712BC
:10096C001C309033517005E042A08004E0F452A09A
:10097C00ED64107016121C572407121C3090335162
:10098C007005E042B18004E0F452B1903354020A95
:10099C0035121C4A2406121C306042121C3870039B
:1009AC00D38001C39201ED2405121C42FF7B017A16
:1009BC003279CBED2406121C4290335BF090334F0E
:1009CC00E0FCA3E02404121C4290335CF0A20192E0
:1009DC000212109D90334EEFF060028032121C38E0
:1009EC006032ED2405121C42FF7B017A337907ED4E
:1009FC00121C4090335BF090334FA3E02404121C84
:100A0C004290335CF012135E90334EEFF06005E0D1
:100A1C00FF020BA690334EE0FF6003020BA6121CE4
:100A2C00572407F582E43EF583E0FF903304E02F72
:100A3C00F0020BA9C28753B1FE7E327FC77C337D97
:100A4C00077B187A0012180E43B101903304E0248E
:100A5C0003F0020BA9121C4A121C2EFF12220E408C
:100A6C00057F10020BA6121C26121C698002C333D0
:100A7C00D8FC903351F0EF2405121C30FF7004C2E7
:100A8C0001800DEFB40804D20180057F10020BA683
:100A9C00ED54F0FF700E903351E030010442B480FD
:100AAC0003F452B4EF64106003020BA9903351E0CD
:100ABC0030010542B6020BA9F452B6020BA9121C66
:100ACC004A121C2EFF12220E40057F10020BA6129A
:100ADC001C26121C698002C333D8FC903351F0EDF4
:100AEC0054F0FD7014EF2405121C30903351600546
:100AFC00E042A08004E0F452A0ED64106003020B0D
:100B0C00A9121C572405121C309033516006E04288
:100B1C00B1020BA9E0F452B1020BA9121C4AA37446
:100B2C0033F0A37403F0EF121C2EFF12220E4005BB
:100B3C007F10020BA6121C26121C698002C333D82C
:100B4C00FC903353F0903351E0FAA3E0FB240412F1
:100B5C001C62EDF0EF121C2E54F07015903353E024
:100B6C0055A06008121C5F7401F08005121C5FE434
:100B7C00F0121C57121C2E54F0FFBF10159033535B
:100B8C00E055B16008121C5F7401F08005121C5F07
:100B9C00E4F0121C73F080057F141221CBE4903228
:030BAC00C4F02270
:0F221D00903358020E5190335DF0903372E022EF
:0722590090E67A7401F02207
:06226000E490E67AF02292
:0E222C0090E6787480F0E030E202C322D32204
:101EA30090E6787440F090335F74E8F090E678E061
:101EB30030E60B12207890335FE014F070EE90332D
:101EC3005FE07010903372E030E0097D157F007E93
:051ED300091221932219
:1017860090E679EFF0903360740AF090335F7464FA
:10179600F090E678E0903361F0E054056007E4905D
:1017A6003360F0800D12207890335FE0FF14F0EF85
:1017B60070DF903360E0FF14F0EF70CF90335FE09E
:1017C600700E903372E030E0057D15121806C322C4
:1017D600903361E030E20E903372E030E0057D2513
:1017E600121806C322903361E020E112903372E0B2
:1017F60030E0097D247F007E09122193C322D32283
:081806007F007E0912219322EC
:101AB30030050790E678E04420F090E679E0120CD8
:101AC300EB90335E74E8F090E678E090335FF0E0FB
:101AD3005405700B12207890335EE014F070E89098
:101AE300335EE07012903372E030E0097D157F00C1
:101AF3007E09122193C32290335FE030E2129033C8
:101B030072E030E0097D257F007E09122193C32214
:021B1300D322DB
:10109D00903357EFF0A3120E5AE412222330E708D3
:1010AD0090335B7F0212119C903372E030E70E1289
:1010BD00221D120CA5FD7F027E0912219390337221
:1010CD00E030E70912221D90000112119090337249
:1010DD00E030E70912221D90000212119090335C4E
:1010ED00E0B42805122259800312226012222C40EE
:1010FD0013903372E030E0097D207F007E091221CC
:10110D00937F2022903357E0FF121786400D7421F4
:10111D0012222330E03D1211838038E490335EF0CB
:10112D0090335BE0FF90335EE0C39F503D12221D74
:10113D00120CA5FF121786401F742212222330E0D5
:10114D0003121183903372E030E00890335E7F001C
:10115D0012119C121EA38018903359E475F00112E0
:10116D000CFD90335EE004F080B6300203121EA336
:10117D0090335DE0FF2290335DE0FD7F007E09122C
:10118D00219322120CBEFD7F027E0912219322E0D3
:07119D00FD7E0912219322DF
:10135E00903357EFF0A3120E5A903372E030E70835
:10136E0090335B7F0312141E90335CE0B428051299
:10137E002259800312226012222C4013903372E005
:10138E0030E0097D207F007E091221937F2022907C
:10139E003357E04401FF121786400F90335D7421DE
:1013AE00F0903372E030E05F803AD202C2039033A5
:1013BE005BE004F0E490335DF090335BE0FF604758
:1013CE00B40202D203903358120E51A203920512A8
:1013DE001AB3920420041790335D7423F090337285
:1013EE00E030E02390335D7F0012141E801930022E
:1013FE0004C202800A903359E475F001120CFD907C
:10140E00335BE014F080B2121EA390335DE0FF2236
:08141E00E0FD7E09122193227A
:1021640078C07CE77D017B017E00120C7F90E68FB6
:0A217400227E007D007B01020E892F
:101F3F007F057A31790812217590310674A0F0E48B
:101F4F00A3F0C206FE7F83FD7B017A307983120EE8
:101F5F00897F837A307900122175E490336DF022F6
:101E3700903081E0FE0EEEB48002E4FE903082E046
:101E4700B5060790336DE004F022903081E024005E
:101E5700F582E43430F583EFF0AF06903081EEF091
:071E6700903080E004F0223E
:101D0E00903082E0FE903081E0FDEEB505037F005D
:101D1E002274002EF582E43430F583E0FD74C02F7A
:101D2E00F582E434E7F583EDF00EEEB48002E4FEC6
:101D3E00AF06903082EEF0C2AC903080E014F0D25C
:041D4E00AC7F012243
:101FCA00E4FC7B0290E6A2E020E120AF03121D0EA2
:101FDA00EF60060B0CECB43EF2EC600F90E7C074B5
:0C1FEA0010F0A3ECF0240290E68FF0222F
:101C7A00903105E0FF903104E0FEEFB506037F00E6
:101C8A002274832FF582E43430F583E0120CEB0FD3
:101C9A00EFB48002E4FF903105EFF0903103E014D5
:101CAA00F0E0B44015903372E030E60C903103E076
:0D1CBA00FD7F027E08122193D2067F0122D9
:101D8F00903104E0FE0EEEB48002E4FE903105E0E7
:101D9F00B506037F0022903104E02483F582E434FA
:101DAF0030F583EFF0AF06903104EEF0C2AC903116
:091DBF0003E004F0D2AC7F012224
:10201C00AD077C04E4FBEDD39400401774802CF5E1
:10202C0082E434E7F583E0FF121D8FEF60050B1D92
:06203C000C80E3AF03225B
:10210C00903109E0601890E6A2E020E1117A317973
:0F211C00087F051221647405F0E4903109F02268
:1014E70030061590E6A2E020E10EC2067A317906B1
:0914F7007F021221647402F0224C
:1021FE00903355E475F001120D1385F082F58322AC
:10180E00903355EEF0A3EFF0A3ECF0A3EDF0A3EAC6
:10181E00F0A3EBF0308703D38001C392021221FEB6
:10182E00E0F9E4FFFED390335AE09F903359E09EE7
:10183E0040383080047D0180027D00E9339281E9D9
:10184E0025E0F90FBF00010EA202B39287E954FE04
:10185E004DF9EF5407700D903357122202E9F01232
:10186E0021FEE0F9A202928780BBEF5407600BE9DC
:10187E0025E0F90FBF00010E80F0903357E0FCA376
:08188E00E0F5828C83E9F022F1
:1017060002045AE493A3F8E493A34003F68001F29B
:1017160008DFF48029E493A3F85407240CC8C333E4
:10172600C4540F4420C8834004F456800146F6DFB3
:10173600E4800B0102040810204080901286E47EAB
:10174600019360BCA3FF543F30E509541FFEE493A8
:10175600A360010ECF54C025E060A840B8E493A36F
:10176600FAE493A3F8E493A3C8C582C8CAC583CA9A
:10177600F0A3C8C582C8CAC583CADFE9DEE780BE52
:01135D00008F
:100BAF00E709F608DFFA8046E709F208DFFA803E28
:100BBF0088828C83E709F0A3DFFA8032E309F60815
:100BCF00DFFA8078E309F208DFFA807088828C837D
:100BDF00E309F0A3DFFA806489828A83E0A3F60831
:100BEF00DFFA805889828A83E0A3F208DFFA804C0B
:100BFF0080D280FA80C680D4806980F280338010E2
:100C0F0080A680EA809A80A880DA80E280CA80334A
:100C1F0089828A83ECFAE493A3C8C582C8CCC583C2
:100C2F00CCF0A3C8C582C8CCC583CCDFE9DEE78092
:100C3F000D89828A83E493A3F608DFF9ECFAA9F011
:100C4F00EDFB2289828A83ECFAE0A3C8C582C8CC67
:100C5F00C583CCF0A3C8C582C8CCC583CCDFEADE80
:100C6F00E880DB89828A83E493A3F208DFF980CCE2
:100C7F0088F0EF60010E4E60C388F0ED2402B404DB
:100C8F000050B9F582EB2402B4040050AF23234582
:060C9F008223900BFF739D
:100CA500BB010689828A83E0225002E722BBFE024D
:090CB500E32289828A83E4932280
:100CBE00BB010CE58229F582E5833AF583E02250EB
:100CCE0006E92582F8E622BBFE06E92582F8E22235
:0D0CDE00E58229F582E5833AF583E493224F
:100CEB00BB010689828A83F0225002F722BBFE01E8
:020CFB00F322E2
:100CFD00C5F0F8A3E028F0C5F0F8E5821582700282
:060D0D001583E038F0221E
:100D1300A3F8E0C5F025F0F0E58215827002158393
:060D2300E0C838F0E822F0
:100D290075F008758200EF2FFFEE33FECD33CDCC81
:100D390033CCC58233C5829BED9AEC99E582984004
:100D49000CF582EE9BFEED9AFDEC99FC0FD5F0D6E1
:100D5900E4CEFBE4CDFAE4CCF9A88222B800C1B90B
:100D69000059BA002DEC8BF084CFCECDFCE5F0CB49
:100D7900F97818EF2FFFEE33FEED33FDEC33FCEB82
:100D890033FB10D703994004EB99FB0FD8E5E4F93D
:100D9900FA227818EF2FFFEE33FEED33FDEC33FC2A
:100DA900C933C910D7059BE99A4007EC9BFCE99A1E
:100DB900F90FD8E0E4C9FAE4CCFB2275F010EF2F63
:100DC900FFEE33FEED33FDCC33CCC833C810D70763
:100DD9009BEC9AE899400AED9BFDEC9AFCE899F89E
:0E0DE9000FD5F0DAE4CDFBE4CCFAE4C8F92231
:100DF700EB9FF5F0EA9E42F0E99D42F0E89C45F052
:010E070022C8
:0C0E0800E0FCA3E0FDA3E0FEA3E0FF225D
:0C0E1400ECF0A3EDF0A3EEF0A3EFF02251
:100E2000A8828583F0D083D082120E37120E37123B
:100E30000E37120E37E473E493A3C583C5F0C58360
:100E4000C8C582C8F0A3C583C5F0C583C8C582C81C
:010E5000227F
:090E5100E0FBA3E0FAA3E0F922A2
:090E5A00EBF0A3EAF0A3E9F02299
:100E6300D083D082F8E4937012740193700DA3A31E
:100E730093F8740193F5828883E473740293686032
:060E8300EFA3A3A380DF32
:1019820090334EEBF0A3EAF0A3E9F0E4903356F083
:10199200A3F090335474FFF5F0120D1345F0603C40
:1019A200903351E0FBA3E0FAA3E0F9120CA5FF90FB
:1019B200334EE0FBA3E0FAA3E0F9903356E475F06E
:1019C20001120D1385F082F583EF120EB5EF60C29E
:1019D200903352E475F001120CFD80B690334EE064
:0819E200FBA3E0FAA3E0F922E7
:10217E00E4FFFE120CA5600C0FEF70010E09E97062
:05218E00F20A80EF22BF
:100E8900EF4E6012EF60010EEDBB010B89828A8380
:100E9900F0A3DFFCDEFA2289F05007F709DFFCA98D
:0C0EA900F022BBFEFCF309DFFCA9F022E4
:100EB500F8BB010DE58229F582E5833AF583E8F073
:100EC500225006E92582C8F622BBFE05E92582C81F
:020ED500F22207
:00000001FF
