:03000000020F6785
:0C0F6700787FE4F6D8FD758120020FAE03
:03004300020E00AA
:03005300020E009A
:100E00000216D6000216D6000216D6000216D6002A
:100E10000216D6000216D6000216D6000216D6001A
:100E20000216D6000216D6000216D6000216D6000A
:100E30000216D6000216D6000216D6000216D600FA
:100E40000216D6000216D6000216D6000216D600EA
:100E50000216D6000216D6000216D6000216D600DA
:100E60000216D6000216D6000216D6000216D600CA
:100E70000216D6000216D6000216D6000216D600BA
:100E80000216D6000216D6000216D6000216D600AA
:100E90000216D6000216D6000216D6000216D6009A
:100EA0000216D6000216D6000216D6000216D6008A
:080EB0000216D6000215C10074
:10151A007400F58690FB4A7C05A3E582458370F941
:10152A00227400F58690FFF37C05A3E5824583705B
:02153A00F92294
:0B08F400482218EBAA55020301170070
:10167A0090210FE0FFD394FA40027FFAEF70027FC5
:02168A0001223B
:0D0046007F8090210FE07004EF4440FF2206
:1007730090E680E04408F07FF47E0112153C7E0091
:100783007F147D007B007A0079081207251212DDA1
:10079300121640902223E030E2097DFF7401FFFE30
:1007A30012165412155EC2AF120D6B9021FEE4F0C7
:1007B300A3740FF01208C2704A7A227900740412EB
:1007C30008DF703F902200E0641F7027A3E064EE0F
:1007D3007021A3E064FE701BA3E064ED70151208A2
:1007E300C270207A2079AB74801208DF6015120D75
:1007F3006B8010902223E030E0097D027F007E01B0
:100803001216549020B3E0FFA3E09021D6CFF0A3BB
:10081300EFF09020B5E0FFA3E09021D8CFF0A3EF55
:10082300F09020B7E0FFA3E09021DACFF0A3EFF040
:1008330012167A9021B3EFF012167A9021E8EFF0B6
:100843009021B2E0FE120046EE4F9021B2F09021CB
:10085300E7E0FE120046EE4F9021E7F0120EB8904B
:10086300E680E04402F0E054F7F0121387D2AF9031
:10087300E65DE030E009120BEB90E65D7401F09069
:10088300E65DE030E6037440F090E65DE030E406B8
:100893007410F01216D190E65DE030E3037408F0B3
:1008A30090E65FE030E0067401F01216BA90E65F5E
:1008B300E030E1067402F01200031214C980B07B29
:1008C300017A2179FE9022117402F0A37428F0C2F8
:1008D300007FA2120A1C9021FDEFF0227B019022DF
:1008E30011F0A37428F07FA2120B239021FDEFF0E7
:0108F30022E2
:1015E1005269676953797374656D7300555342503D
:0D15F100414C2028696E76616C6964290008
:100D6B007E007F807D007B017A2079AB1207259076
:100D7B0020AF7480F0A3E4F09020AB741FF0A37449
:100D8B00EEF0A374FEF0A374EDF09020B3742AF090
:100D9B00A37415F07401A3F0A3F0A3E4F0A304F083
:100DAB007A1579E1120DF07A1579E1902207120686
:100DBB00F67B017A2079C31210EF7A1579ED120DBB
:100DCB00F07A1579ED9022071206F67B017A2079DD
:100DDB00E31210EF9020C27401F09021031206BCB5
:100DEB0001000000227BFF12162B90220AEEF0A3CB
:050DFB00EFF07BFF2278
:10168C0030313233343536373839414243444546AC
:01169C00004D
:0508FF0042222200006E
:1016400090E608E04402F075C040A2DFB3E43352F4
:04165000D8D2C12209
:0C15A100EAFF12149CAF0312149C7F2080
:1015AD00EFB40A0830C1FDC2C175C10D30C1FDC215
:0415BD00C18FC122F7
:10149C00AE07EEC4540FFD7C00248CF582EC3416A0
:1014AC00F583E493FF1215ADEE540FFD7E00248CF2
:0D14BC00F582EE3416F583E493FF0215ADC2
:10165400AB07AA06A9051215A1AF011215A87F0AA6
:031664000215ADBF
:1014F500902220EEF0A3EFF0AB05AA04902220E0A5
:10150500FF12149C902220A3E0FF1215A81215A12A
:051515007F0A0215AD84
:0116D60032E1
:10153C0090220DEEF0A3EFF090220DE07002A3E0EC
:10154C00600F12151A90220D74FFF5F012069080A0
:02155C00E72284
:1015C100C0E0C083C08290E6F574FFF00000000027
:1015D1005391BFF5A200000000D082D083D0E03249
:1014C900E5BB30E7FBE5AB20E12190E6ABE090E638
:1014D900D0F00000000090E6ACE090E6D1F000000A
:0C14E9000000E4F5BB0000000080D522EC
:1012DD00538EF8E490E605F090E600E054E74412F2
:1012ED00F075873075D840E490E608F0F5A8F5B8AC
:1012FD00F5E8F5A890E65CF090E65EF090E65AF021
:10130D0090E662F090E650F090E652F090E654F0E0
:10131D0090E656F090E660F075A1FF75A2FFF5918D
:0B132D0090E6687403F000000000224E
:1013870090E6047480F000000000E51A540EF000A7
:10139700000000E4F00000000090E602F00000000A
:1013A7000090E603F000000000120CAC5391BF0060
:1013B70000000090E6617402F00000000090E66013
:0A13C700F000000000D2EA02140654
:10155E00E490E670F0F580F5B290E67174FFF0E479
:10156E00F5A075B4FF90E6727480F075B12875B66B
:02157E00B82291
:0F169D0090220E0206ED902213F0902223E022FD
:0716C40090E67A7401F022A8
:0616CB00E490E67AF02233
:0E16AC0090E6787480F0E030E202C322D32290
:1013D10090E6787440F090221574E8F090E678E099
:1013E10030E60B12152B902215E014F070EE9022CE
:1013F10015E07010902223E030E0097D157F007E1A
:0514010009121654223F
:100FF30090E679EFF0902216740AF090221574644B
:10100300F090E678E0902217F0E054056007E49052
:101013002216F0800D12152B902215E0FF14F0EF2D
:1010230070DF902216E0FF14F0EF70CF902215E0EE
:10103300700E902223E030E0057D15121073C32259
:10104300902217E030E20E902223E030E0057D2568
:10105300121073C322902217E020E112902223E0A2
:1010630030E0097D247F007E09121654C322D32267
:081073007F007E0912165422D1
:1011BD0030030790E678E04420F090E679E01206DF
:1011CD007E90221474E8F090E678E0902215F0E01D
:1011DD005405700B12152B902214E014F070E8904A
:1011ED002214E07012902223E030E0097D157F007B
:1011FD007E09121654C322902215E030E21290227D
:10120D0023E030E0097D257F007E09121654C322AC
:02121D00D322DA
:100A1C0090220DEFF0A31206F6E41216A330E708AD
:100A2C009022117F02120B1B902223E030E70E1252
:100A3C00169D120638FD7F027E0912165490222351
:100A4C00E030E70912169D900001120B0F90222343
:100A5C00E030E70912169D900002120B0F90221243
:100A6C00E0B428051216C480031216CB1216AC4043
:100A7C0013902223E030E0097D207F007E091216BE
:100A8C00547F202290220DE0FF120FF3400D7421B1
:100A9C001216A330E03D120B028038E4902214F0C1
:100AAC00902211E0FF902214E0C39F503D12169D3E
:100ABC00120638FF120FF3401F74221216A330E0F7
:100ACC0003120B02902223E030E0089022147F00E6
:100ADC00120B1B1213D1801890220FE475F0011227
:100AEC000690902214E004F080B63000031213D16B
:100AFC00902213E0FF22902213E0FD7F007E09126A
:100B0C00165422120651FD7F027E0912165422E061
:070B1C00FD7E0912165422B0
:100B230090220DEFF0A31206F6902223E030E7089F
:100B33009022117F03120BE3902212E0B4280512D6
:100B430016C480031216CB1216AC4013902223E076
:100B530030E0097D207F007E091216547F20229009
:100B6300220DE04401FF120FF3400F902213742172
:100B7300F0902223E030E05F803AD200C20190225D
:100B830011E004F0E4902213F0902211E0FF60479B
:100B9300B40202D20190220E1206EDA201920312B8
:100BA30011BD92022002179022137423F090222386
:100BB300E030E0239022137F00120BE38019300012
:100BC30004C200800A90220FE475F001120690908F
:100BD3002211E014F080B21213D1902213E0FF220D
:080BE300E0FD7E091216542208
:09003A007E007D007B0002072519
:101615007F067A00791412003A7F027A00791A124D
:06162500003A751A0222D2
:100EB800902223E030E2097DFF7F017E0412165460
:100EC800C2E8C2EAE490E65AF090E65B74FDF0E40A
:100ED80090E658F090E659743FF012161590E61017
:100EE8007420F00000000090E611F000000000906F
:100EF800E6127462F00000000090E6137420F0001F
:100F080000000090E6147422F00000000090E6153E
:100F18007460F00000000090E6047480F0000000A7
:100F2800007402F0000000007406F000000000E405
:100F3800F00000000090E6187405F0000000009032
:100F4800E61AF00000000090E65D747FF090E65F1E
:0F0F580074FFF0E490E65CF0D2F8D2E8D2EA221F
:10140600E490E60BF00000000090E6127422F00073
:1014160000000012133890E6187410F00000000067
:10142600E490E650F00000000090E65174FFF000F2
:041436000000002290
:0516D100E4FF0215FE1C
:1013380090E618E054EFF00000000090E604748096
:10134800F000000000E51A540EF000000000E4F080
:1013580000000000E51A5480131313541FFFE51A08
:10136800540F4F90E683F000000000E04420F000A6
:0F13780000000090E618E04410F0000000002292
:1015FE00AE078E09121338EE90E6127005E0547F96
:07160E00F022E04480F0220D
:100904005221CE12010002FF00004000000000004E
:1009140000010203015921AB090219000101000081
:10092400000904000001FF00000007050202400066
:10093400005921E009021900010100000009040026
:100944000001FF000000070502020002004A21C462
:100954000A060002FF00004001004421F9040309D3
:01096400048E
:10127E00902204E475F0011206A685F082F5832211
:10128E007A21792B75150175162175172B22751C70
:10129E0000751D19AE1CAF1D782B7C217D017B01C5
:1012AE002214F5828A83EFF00DEDAE0422C3E51908
:1012BE009FF519E5189EF5182290E6A0E04401F07E
:0F12CE00E04480F0222517F517EE3516F51622AD
:10143A009022047421F0A3742DF08F828E83E060D1
:10144A001D0FEF70010E14F582E0FD12127EEDF011
:10145A0012127EE4F090212BE02402F080DC90212D
:04146A002BE0FF2252
:10166700EF540FFFD39409EF50052430FF80032474
:0316770037FF2218
:10115700902204EEF0A3EFF0A9057E217D2D7C21DE
:10116700E9604D902204121281E0902206F019E006
:10117700C4540FFF1216670DEDAA0470010C12126A
:10118700AF70010C14F5828E83E4F0902206E0FF25
:101197001216670DEDAA0470010C1212AF70010C44
:1011A70014F5828E83E4F090212BE02404F080B0C4
:0611B70090212BE0FF2255
:10146E0090212B7402F0A304F0EF24FE600D1460A3
:10147E0011240270167E207FC380047E207FE3023B
:0E148E00143A7E207FBB7D080211577F00229A
:10005600902223E030E409AD0D7F027E051216548E
:10006600E50D1206FF008A0000F101013B0302DBE9
:100076000501A106026408027F0902B70A029A0B6B
:10008600000002D8E5136402451260030202D87527
:100096001800751902E490212BF0A3F0E50C541F0B
:1000A60014603714601D240270389021E7E0C413F1
:1000B60013540190212BF0E50B70030202DBE044A0
:1000C60002F022E51124FE7019E51BB404047F0139
:1000D60080027F0090212BEFF022E490212BF0A3E9
:1000E600F022751404E4F518F51922E5134512609B
:1000F600030202D8E50C541F24FE6011240270325C
:10010600E50F640160030202D8E4F50B22E50F60F7
:10011600030202D8E51124FE701512133890E6A3E7
:10012600E054FEF090E612E04480F0E4F51B220273
:1001360002D80202D8E513451260030202D8E50C84
:10014600541F24FE60112402704EE50F24FE700336
:100156000202DB040202D8E50F60030202D8E511B1
:1001660024FE703190E612E0547FF090E6A3E0445E
:1001760001F0E51A5480131313541FFFE51A540FA8
:100186004F90E683F000000000E04420F0000000FD
:1001960000751B04220202D80202D8E50E24FE6076
:1001A6001C14603E24FD606714607524066003021B
:1001B60002487515017516217517CE801CE50F705E
:1001C6004CE508600B7515017516217517E0800959
:1001D6007515017516217517AB751C00751D19026D
:1001E600024BE50F1424FD501524047020751501EB
:1001F6007516217517F9751C00751D0480471212B6
:100206008EAF0F12146E751C008F1D8038803375EB
:1002160015017516217517C4751C00751D0A8025F4
:10022600E508600912129C7A2179AB800712129CAC
:100236007A2179E012061290212C7407F01212929C
:100246008003751404C3E513951DE512951C50072C
:1002560085121885131922851C18851D1922E51388
:10026600640145127006E50C64806002806490218A
:100276002BE509F07518008055E51345127004E565
:100286000C6002804DE50F146003047005AF0F0289
:1002960015FE803EE51345127006E50C640160020A
:1002A6008030E5097002802AE5116002802402137D
:1002B60038E513640145127006E50C64816002801E
:1002C60011E5116002800BE490212BF0F5187519E9
:0602D60001227514042250
:10121F00E5BA20E0599022047440F0E0FFD3E519BD
:10122F009FE51894005006E519F0E4F51490220498
:10123F00E0FFD39400401E7E0078407CE77D01AB39
:10124F0015AA16A917120612902204E0FF7E0012AB
:10125F0012D31212BB00000000E490E68AF00000E7
:0F126F000000902204E090E68BF00000000022C7
:100BEB0090E6B8E0F50CA3E0F50DA3E0F50FA3E05C
:100BFB00F50EA3E0F511A3E0F51090E6BFE0FC9035
:100C0B00E6BEE0FFECF512EFF513902223E030E4A3
:100C1B0009AD0C7F017E0512165490E680E030E79B
:100C2B00057508018003E4F508E4F514F518F519CA
:100C3B0012128ED3E5139400E51294004013E50CC9
:100C4B0030E7057514028009851218851319751480
:100C5B0003E50C546024C060092440700A1200564E
:100C6B0080081202DC8003751404E51424FD600C6B
:100C7B001460192402701812121F80130000000058
:100C8B0090E68B7480F00000000080031212C7E521
:100C9B001464026004E514700790E6A0E04480F051
:010CAB002226
:0A16BA00E51424FE700312121F2233
:10107B000000000090E68BE0902204F000000000DE
:10108B00E0FFC394405003751401EFD39400404626
:10109B00E5199FE51894005010751404E4F518F544
:1010AB0019902204E519F0802D902204E0FF7E00B8
:1010BB00A817AC16AD157B017AE779401206129092
:1010CB002204E0FF7E001212BBEF1212D3E519458A
:1010DB0018700375140100000000E490E68BF0001B
:0410EB0000000022DF
:10000300E51424FD701512107BE514B40110E50C02
:10001300546024C070051202DC8003751404E514D7
:1000230024FC600F2403700E90E6A0E04480F0E40B
:07003300F514221212C7228E
:10158000751404902223E022D3902205E094009069
:101590002204E09400229022047401F0A374F4F079
:0115A0002228
:1002DC00902223E030E405AD0C12053A902223E085
:1002EC0030E405AD0D12053AE50C541F6003020411
:1002FC00FDE50C20E7030203DCE50D24FE6047144A
:10030C00602824F3606E240F60030203D0E51364AD
:10031C0008451260030204FD751501751622751748
:10032C00187518007519080203C0E513648045128E
:10033C0060030204FD7515017516207517AB751851
:10034C0000751980806EE513640145126003020488
:10035C00FDE5B130E207E490212BF0800690212BD3
:10036C007401F075150175162175172B751800752C
:10037C00190180407B007A0079109022117402F0F0
:10038C00A37428F0C2007FA2120A1C902204EFF082
:10039C007026AB15AA16A917902211E513F0A374B9
:1003AC0028F07FA2120B23902204EFF0700A851222
:1003BC00188513197514022212158020E00302050A
:1003CC001002045F12158020E003020510020507DD
:1003DC00E50D24FC605E24FC700302048F14700392
:1003EC000204D024F86003020501E514B403149050
:1003FC00212BE510F0A3E511F0751501751621758B
:10040C00172D227B017A21792BE5132402902211DE
:10041C00F0A37428F0D2007FA2120A1C902204EFE1
:10042C00F0E0FD700302051012158020E0030205B8
:10043C00100205097E007F087D007B017A22790578
:10044C00120725120511EFF0601112158020E00340
:10045C00020510902204E0FD0205097F147E0012B3
:10046C00153C902206740FF0120511EFF070030288
:10047C00051012158020E003020510902204E0FD07
:10048C0002050912159643B14043B64053B1EF1221
:10049C00151A43B110121588400AE58020E50512A3
:1004AC00052C80F1902204E07002A3E070129022DF
:1004BC0023E030E0097D157F027E06121654803150
:1004CC0053B1F722121596E5B120E20812052C1251
:1004DC00158850F343B108902204E07002A3E07039
:1004EC0023902223E030E0097D157F037E0612164F
:1004FC00547514042212158030E009AD0D7F017E75
:10050C0006121654227B017A227905902211740866
:10051C00F0A37428F0D2007FA2120A1C90220422AD
:10052C0012151A90220474FFF5F0120690227F0126
:06053C007E061216542297
:100965006080200001380101010101070205000036
:10097500000000000002020202020202002D000037
:100985000000003F011001010101010702050000FF
:10099500000000000002020202020202002D000017
:1009A5000000003F013801010101010702050000B7
:1009B500000000000002020202020202002D0000F7
:1009C5000000003F01380101010101070205000097
:1009D500000000000002020202020202002D0000D7
:1009E5000000003F60242087000000000000000098
:1009F50000000000000000000000000000000000F2
:100A0500000000000000000000000000472080E01A
:060A1500000002BAE4003B
:100CAC0090E60174BAF090E6F574FFF0902080E0C5
:100CBC0090E6F3F0902081E090E6C3F0902082E083
:100CCC0090E6C1F0902083E090E6C2F0902085E0A1
:100CDC0090E6C0F0902086E090E6F4F075AF0774D3
:100CEC0020F59A7400F59B759DE4E4F59EFF90E663
:100CFC007BE090E67CF00FEFB480F390E67174FF2C
:100D0C00F0F5B490E672E04480F043B68000000049
:100D1C0000E490E6C4F00000000090E6C5F09020DE
:100D2C0087E090E6C6F0902088E090E6C7F090202F
:100D3C0089E090E6C8F090208AE090E6C9F0902017
:100D4C008BE090E6CAF090208CE090E6CBF09020FF
:0F0D5C008DE090E6CCF090208EE090E6CDF02276
:100F7300020773E493A3F8E493A34003F68001F21A
:100F830008DFF48029E493A3F85407240CC8C3337F
:100F9300C4540F4420C8834004F456800146F6DF4E
:100FA300E4800B01020408102040809008F4E47EE2
:100FB300019360BCA3FF543F30E509541FFEE49343
:100FC300A360010ECF54C025E060A840B8E493A30A
:100FD300FAE493A3F8E493A3C8C582C8CAC583CA35
:100FE300F0A3C8C582C8CAC583CADFE9DEE780BEED
:010A1B0000DA
:10054200E709F608DFFA8046E709F208DFFA803E9B
:1005520088828C83E709F0A3DFFA8032E309F60888
:10056200DFFA8078E309F208DFFA807088828C83F0
:10057200E309F0A3DFFA806489828A83E0A3F608A4
:10058200DFFA805889828A83E0A3F208DFFA804C7E
:1005920080D280FA80C680D4806980F28033801055
:1005A20080A680EA809A80A880DA80E280CA8033BE
:1005B20089828A83ECFAE493A3C8C582C8CCC58336
:1005C200CCF0A3C8C582C8CCC583CCDFE9DEE78006
:1005D2000D89828A83E493A3F608DFF9ECFAA9F085
:1005E200EDFB2289828A83ECFAE0A3C8C582C8CCDB
:1005F200C583CCF0A3C8C582C8CCC583CCDFEADEF4
:10060200E880DB89828A83E493A3F208DFF980CC55
:1006120088F0EF60010E4E60C388F0ED2402B4044E
:100622000050B9F582EB2402B4040050AF232345F5
:0606320082239005927383
:10063800BB010689828A83E0225002E722BBFE02C0
:09064800E32289828A83E49322F3
:10065100BB010CE58229F582E5833AF583E022505E
:1006610006E92582F8E622BBFE06E92582F8E222A8
:0D067100E58229F582E5833AF583E49322C2
:10067E00BB010689828A83F0225002F722BBFE015B
:02068E00F32255
:10069000C5F0F8A3E028F0C5F0F8E58215827002F5
:0606A0001583E038F02292
:1006A600A3F8E0C5F025F0F0E58215827002158307
:0606B600E0C838F0E82264
:1006BC00A8828583F0D083D0821206D31206D3127F
:1006CC0006D31206D3E473E493A3C583C5F0C583A4
:1006DC00C8C582C8F0A3C583C5F0C583C8C582C888
:0106EC0022EB
:0906ED00E0FBA3E0FAA3E0F9220E
:0906F600EBF0A3EAF0A3E9F02205
:1006FF00D083D082F8E4937012740193700DA3A38A
:10070F0093F8740193F5828883E47374029368609D
:06071F00EFA3A3A380DF9D
:1010EF00902204EBF0A3EAF0A3E9F0E490220CF0D5
:1010FF00A3F090220A74FFF5F01206A645F0603CAB
:10110F00902207E0FBA3E0FAA3E0F9120638FF9064
:10111F002204E0FBA3E0FAA3E0F990220CE475F0BF
:10112F00011206A685F082F583EF120751EF60C218
:10113F00902208E475F00112069080B6902204E028
:08114F00FBA3E0FAA3E0F92282
:10162B00E4FFFE120638600C0FEF70010E09E97033
:05163B00F20A80EF221D
:10072500EF4E6012EF60010EEDBB010B89828A83EB
:10073500F0A3DFFCDEFA2289F05007F709DFFCA9F8
:0C074500F022BBFEFCF309DFFCA9F0224F
:10075100F8BB010DE58229F582E5833AF583E8F0DE
:10076100225006E92582C8F622BBFE05E92582C88A
:02077100F22272
:00000001FF
